:100000000C9444020C9475020C9475020C947502C5
:100010000C9475020C9475020C9475020C94750284
:100020000C9475020C9475020C9475020C94750274
:100030000C9475020C94EB090C9475020C947502E7
:100040000C9475020C9475020C9475020C94750254
:100050000C9475020C9475020C9475020C94022198
:100060000C9475020C94CB0A0C94A10A0C947502A2
:100070000C9475020C9475020C9475020C94750224
:100080000C9475020C9475020C9475020C94750214
:100090000C9475020C9475020C9475020C947C19E6
:1000A0000C9475020C9475020C9475020C947502F4
:1000B0000C9475020C9475020C9475020C947502E4
:1000C0000C9475020C9475020C9475020C947502D4
:1000D0000C9475020C9475020C9475020C947502C4
:1000E0000C9475020417F4160717F716FA16FD1686
:1000F000001712201520042008200C204C20192065
:100100001D20232027202B203120352039204C2072
:100110003F20432047200C9412200C94F5050C94AA
:10012000F4160C94F4020C94CF100C9433110C942C
:1001300076080C9427200C94D6100C9461100C9423
:10014000A5050C94E5110C9404200C9423200C9428
:100150007B020C94CE100C94D7100C943B140C948E
:10016000FA160C94C7120C946B140C94250E0C9474
:100170006F2D0C9408200C943F200C9443200C9479
:100180003D080C942B200C9431200C947E050C948B
:100190004C030C94FE130C94FD160C944C200C9400
:1001A00007170C9467080C9447200C9450100C947B
:1001B0001E100C9420030C9492060C9435200C9481
:1001C00004170C9400170C94D0080C9478020C942B
:1001D00057140C941D090C94871F0C940C200C943C
:1001E000FA100C942F100C94F7160C94B41F0C9466
:1001F00012080C944F110C943C140C9419200C947C
:100200001D200C9482030C9439200C94D5100C946E
:1002100048140C940F040C9441070C9477020C942E
:10022000E0100C9477100C9415200C9498080C9402
:10023000E0030C948A080C9402080C944714496E4D
:10024000697A69616C697A7A617A696F6E6520731F
:10025000636865646120736420617676656E757489
:100260006120636F6E20737563636573736F2E20F7
:100270000A005475747465206C652066756E7A6921
:100280006F6E616C6974EFBFBD206C6567617465EA
:1002900020616C6C61207363686564612073642005
:1002A00076657272616E6E6F206469736162696CEB
:1002B00069746174652E20417474656E7A696F6E1D
:1002C000653A20696C20646973706F73697469762C
:1002D0006F206E6F6E2066756E7A696F6E657261E3
:1002E0002720636F7272657474616D656E74652E1C
:1002F0000A00496D706F73736962696C6520696E7D
:10030000697A69616C697A7A617265206C612073BF
:10031000636865646120736420706572206C277562
:1003200074696C697A7A6F2E20436F6E74726F6C89
:100330006C61726520696C206361626C61676769DA
:100340006F20652063686520736961206566666556
:1003500074746976616D656E746520696E7365721B
:1003600069746120756E61207363686564612E2015
:100370000A001F1C1F1E1F1E1F1F1E1F1E1F010203
:1003800010202008081020401020408002010201A7
:10039000080402010102040810204080804020105F
:1003A00008040201800402018040201008040201B8
:1003B0000804020101020408102040800102040820
:1003C0001020408000002200250028002B002E0075
:1003D0003100340002010000050108010B01050590
:1003E0000505070508080808020202020A0A0808AB
:1003F00004040404010101010101010103030303D9
:1004000003030303040707070C0C0C0C0C0C0C0C67
:100410000202020206060606060606060B0B0B0B78
:100420000B0B0B0B0200002100240027002A002DDB
:10043000003000330001010000040107010A01003F
:10044000000A0B02090C0D0E08070304010000004E
:10045000000000000000000000000000000000009C
:100460000000000000000000000000121110000059
:10047000000000000000000000000000000000007C
:100480000000000000006F2D11241FBECFEFD1E24D
:10049000DEBFCDBF00E00CBF21E1A0E6BCE001C0A3
:1004A0001D92AC30B207E1F71CE0A0E0B2E0EAE850
:1004B000FEE600E00BBF02C007900D92A036B10728
:1004C000D9F712E0C4E4D2E000E006C021970109A8
:1004D000802FFE010E946634C334D10780E00807F4
:1004E000A9F70E944C210C9443370C940000089506
:1004F00080E090E008950F931F93CF93DF93FC016A
:1005000084A195A1892B09F46AC083A5882309F4E5
:1005100066C09A0157FD63C077FD61C080A191A1BB
:10052000A2A1B3A197FD5BC0B7FD59C0AF01445F65
:100530005F4FEA0109900020E9F72197C41BD50B12
:10054000AC0197FD4CC08D01B7FD49C0241735079C
:100550000CF445C08C0F9D1F821793070CF43FC00D
:1005600060177107E1F587A190A5892BC1F18F0173
:100570008FE790E00E941435EC018BE293E09983C1
:100580008883FE01E258FF4F108266EE78E0CE01CC
:1005900002960E943C37B8016E5F7F4FCE018E5BA2
:1005A0009F4F0E943C37F80180A191A1A2A1B3A165
:1005B000FE01FE9680839183A283B383E0912F0393
:1005C000F0913003CE011995D8019796ED91FC91E9
:1005D0009897CE01DF91CF911F910F911994DF91E0
:1005E000CF911F910F91089580915502882389F032
:1005F00060E080911C020E94E31F8091F20D9091B7
:10060000F30D63E877E00C960E943C371092550298
:1006100011C061E080911C020E94E31F8091F20DE5
:100620009091F30D69E877E00C960E943C3781E0E9
:100630008093550280910A0E90910B0E0C94E61354
:1006400080915402882389F061E0809120020E9409
:10065000E31F8091F40D9091F50D63E877E00C961F
:100660000E943C371092540211C060E08091200239
:100670000E94E31F8091F40D9091F50D69E877E0F9
:100680000C960E943C3781E08093540280910A0EC0
:1006900090910B0E0C94E61380910A0E90910B0E24
:1006A000FC01668977890C94B113FC01248131E047
:1006B0003093BB102093DD101092BC101092DE100E
:1006C0008385682B8FE79CE00E94B41F81E00C9427
:1006D0002F1E0F931F93CF938C01C62F0E9455039B
:1006E0006C2F6460C8010E9455036C2F6B7FC8019A
:1006F0000E94550383EC90E00197F1F7CF911F9191
:100700000F9108950F931F93CF938C01C62F607F95
:1007100061600E94690380E1C89FB001112461609B
:10072000C8010E94690381E090E0CF911F910F9171
:1007300008950F931F93CF938C01C62F607F0E9463
:10074000690380E1C89FB0011124C801CF911F91B6
:100750000F910C946903FC0166816E7F668368606B
:100760000C949903CF93DF93CDB7DEB728970FB6DC
:10077000F894DEBF0FBECDBF9C0188E0E1EDF2E052
:10078000DE01119601900D928A95E1F7F9018085BD
:10079000841710F44FEF480FFE013196E40FF11D5E
:1007A000E40FF11D9081690F6068C90128960FB6AA
:1007B000F894DEBF0FBECDBFDF91CF910C949903AB
:1007C000CF93DF93FC0124A135A12115310519F147
:1007D000EC0142A160A1C9010E94B20329A58CA12C
:1007E0009DA1222319F0AAA5BBA502C0ACA5BDA559
:1007F000FC0120813181F9012081318156966C9173
:10080000F9011995BE01645F7F4F8CA19DA10E94E3
:100810009F0A81E001C080E0DF91CF9108951F938E
:10082000CF93DF93EC018CA19DA1009719F11BA53B
:10083000112309F10E94AB034AA168A18CA19DA1DB
:100840000E94B203ACA5BDA5109761F08CA19DA13B
:10085000FC0120813181F9012081318156966C9112
:10086000F9011995BE01645F7F4F8CA19DA10E9483
:100870009F0A01C010E0812FDF91CF911F91089551
:1008800061E00E9499038BE39FE10197F1F70895DE
:1008900067EF76E08BE89CE00E949F0A81E0089574
:1008A0002F923F924F925F926F927F928F929F9280
:1008B000AF92BF92CF92DF92EF92FF920F931F936E
:1008C000CF93DF93CDB7DEB7A2970FB6F894DEBF14
:1008D0000FBECDBF6B017C019B01AC010E940F35A7
:1008E000882319F062EF78E01AC046015701E894B6
:1008F000B7F82FEF3FEF4FE75FE7C501B4010E9464
:100900000F35811111C02FEF3FEF4FE75FE7C501B2
:10091000B4010E94BF3218163CF466EF78E08BE811
:100920009CE00E948A0AA5C02FEF3FEF4FE75FE4EB
:10093000C701B6010E940A3518161CF46AEF78E068
:10094000EECF2FEF3FEF4FE75FECC701B6010E94FC
:10095000BF3287FDF3CF20E030E0A901C701B60127
:100960000E94BF3287FF07C08DE20E94D61AF7FAB5
:10097000F094F7F8F0942AE037ED43EA5BE3C7011F
:10098000B6010E946F344B015C010E94DB346B01A5
:100990007C010E94C4329B01AC01C501B4010E94DC
:1009A0006E344B015C0119A28E010F5D1F4F0AA32B
:1009B000612E2AE0222E312C412C512CC701B60188
:1009C000A20191010E94253469017A01605DF8015C
:1009D00062938F01232B242B252B81F7BF018BE8FA
:1009E0009CE00E948A0A8EE20E94D61A83E0F82ECA
:1009F0009AE0292E312C412C512CFA94FF20C9F178
:100A000020E030E040E251E4C501B4010E9425330A
:100A10004B015C010E94DB349B0140E050E019A2D5
:100A20000AA1162D762EC32ED42EE52ECA01B901A9
:100A3000A20191010E942534605DF80162938F014B
:100A4000211531054105510589F7BF018BE89CE06F
:100A50000E948A0A672D7C2D8D2D9E2D0E94C43206
:100A60009B01AC01C501B4010E946E344B015C01D5
:100A7000C4CF81E0A2960FB6F894DEBF0FBECDBF03
:100A8000DF91CF911F910F91FF90EF90DF90CF906A
:100A9000BF90AF909F908F907F906F905F904F909E
:100AA0003F902F900895BC01990F880B990B0E94DD
:100AB000C6320C945004EF92FF920F931F93CF9382
:100AC000DF938C01FC0101900020E9F73197EF01E1
:100AD000C81BD90B7C01C701801B910B8C179D078C
:100AE00034F4F70181917F010E94D61AF4CFDF918F
:100AF000CF911F910F91FF90EF9008958EEF98E0A6
:100B00000E945B0581E199E00E945B05E091B20DD6
:100B1000F091B30D3097C1F08581882329F060E012
:100B2000809120020E94E31F40ED57E060E070E0FA
:100B300084EF91E00E94DB1A40EA5FE060E070E041
:100B400088EC90E00C94DB1A0895E091B20DF091DE
:100B5000B30D309709F448C08481811110C00E9400
:100B6000480486E299E00E945B0568E679E080919E
:100B70000A0E90910B0E0E94DB130C944804938193
:100B800081E0892783830E94480481E799E00E94DD
:100B90005B05E091B20DF091B30D638170E080E0F0
:100BA00090E00E94C4320E9450040E944804E091E8
:100BB000B20DF091B30D23818091E00D9091E10D84
:100BC000222319F069E877E002C063E877E00C9629
:100BD0000E943C3745E050E06EE877E08091040EDB
:100BE0009091050E0C94951E0895AF92BF92CF92EE
:100BF000DF92EF92FF920F931F93CF93DF931F9299
:100C00001F92CDB7DEB78CE899E00E945B0584EBBC
:100C10009DE00E94AB0368EE73E080E090E00E94EC
:100C2000BC208BE3B82E9BEFE92E93E0F92E8E01CA
:100C30000F5F1F4F20E2A22E0E94480489EB99E02B
:100C40000E945B0580912E020E949D209C01B29E15
:100C5000C001B39E900D1124B7010E94FD336B01BA
:100C60004AE0B801C6010E948232F80101900020DA
:100C7000E9F7CF0102978017910709F4AA82C8010A
:100C80000E945B0587EC99E00E945B05B601DD0CD4
:100C9000880B990B0E94C6320E94500487EE99E09F
:100CA0000E945B0580912E020E949D20BC01990F3D
:100CB000880B990B0E94C6320E9450040E9448047F
:100CC000C090DC0DD090DD0DB801C6010C960E94DD
:100CD0003C37D601ED91FC910190F081E02DC601E9
:100CE000199585E89DE00E946013D82E68EC70E0AD
:100CF00080E090E00E94BC20DD2009F49DCF8EEFC3
:100D000099E00E945B050E948B1E0F900F90DF916F
:100D1000CF911F910F91FF90EF90DF90CF90BF90F8
:100D2000AF900895EF92FF920F931F93CF93DF93AD
:100D30001F921F92CDB7DEB78CE899E00E945B0549
:100D400084EB9DE00E94AB0368EE73E080E090E0EE
:100D50000E94BC2007E1EE24EA9483E0F82E0E9472
:100D6000480489EB99E00E945B0580912E020E9465
:100D70009D209C01029FC001039F900D1124B7018B
:100D80000E941134CB014AE0BE016F5F7F4F0E9489
:100D90008232CE0101960E945B0587EC99E00E94A9
:100DA0005B05CE0101960E945B050E94480480917C
:100DB000DE0D9091DF0DBE016F5F7F4F0C960E949C
:100DC0003C3741E050E06DE07AE08091020E909176
:100DD000030E0E94951E85E89DE00E946013182F67
:100DE00068EC70E080E090E00E94BC20112309F4E0
:100DF000B6CF8EEF99E00E945B050E948B1E0F908C
:100E00000F90DF91CF911F910F91FF90EF90089578
:100E1000EF92FF920F931F93CF93DF938C017C018E
:100E2000C0E0D0E0F80101900020E9F73197E01B25
:100E3000F10BCE17DF07F0F487E19AE00E945B0523
:100E4000BE010D2E000C880B990B0E94C6320E9429
:100E500050048CE19AE00E945B05F70181917F01CB
:100E60000E94D61A81E49CE00E945B050E9448041F
:100E70002196D8CFDF91CF911F910F91FF90EF90E6
:100E80000895CF92DF92EF92FF920F931F93CF932B
:100E9000DF93E091DE0DF091DF0DEF012C96E090F5
:100EA000DC0DF090DD0D8701045F1F4F85858032DA
:100EB00011F415860CC064EB7BE0CE010E94333741
:100EC000892B29F465EB7BE0CE010E943C37F701CA
:100ED0008585803211F415860CC064EB7BE0C80177
:100EE0000E943337892B29F465EB7BE0C8010E940F
:100EF0003C370E9448048FE19AE00E945B0584E43D
:100F00009AE00E945B05CE010E9408070E944804F7
:100F10008EE59AE00E945B05C8010E9408070E94C6
:100F200048048BE79AE00E945B05E091E40DF091A4
:100F3000E50D61A570E080E090E00E94C4320E945F
:100F400050040E94480481E99AE00E945B05E09108
:100F5000E60DF091E70D61A570E080E090E00E9461
:100F6000C4320E9450048DEA9AE00E945B05E09131
:100F7000E80DF091E90D61A570E080E090E00E943D
:100F8000C4320E9450040E944804CE010E94543290
:100F9000C091B20DD091B30DC880D980F601918374
:100FA0008083FF24F394FC82C8010E945432F6012E
:100FB00093838283FC82FB82E091E40DF091E50D46
:100FC00081A58A83E091E60DF091E70D81A58E83DE
:100FD000E091E80DF091E90D81A58D838EE795E014
:100FE00098878F8364EB77E080910A0E90910B0EC7
:100FF000DF91CF911F910F91FF90EF90DF90CF90F5
:101000000C94DB130E9448048FEB9AE00E945B056E
:101010000E94480466ED7AE080910A0E90910B0ED2
:101020000C94DB1380EE9AE00E945B0562E377E0AC
:1010300080910A0E90910B0E0C94DB130F931F936B
:10104000CF93DF938C01EB010E944804C8010E94FA
:101050005B0588E796E00E945B05BE01DD0F880B0B
:10106000990B0E94C632DF91CF911F910F910C9482
:10107000500461110C945B050895CF92DF92EF92BA
:10108000FF920F931F93CF93DF936C017A018B0133
:10109000C0E0D0E0CE15DF0581F0D8016D918D0163
:1010A000D601ED91FC910190F081E02DC6011995DA
:1010B000892B11F02196EECF7E01C701DF91CF91F0
:1010C0001F910F91FF90EF90DF90CF900895FC015A
:1010D000538D448D252F30E0842F90E0821B930B9D
:1010E000541710F0CF96089501970895FC01918D43
:1010F000828D981761F0828DDF01A80FB11D5D967A
:101100008C91928D9F5F9F73928F90E008958FEFE7
:101110009FEF0895FC01918D828D981731F0828D9B
:10112000E80FF11D858D90E008958FEF9FEF0895F2
:10113000FC01918D228D892F90E0805C9F4F821B56
:1011400091098F73992708958BE89CE00E94980875
:1011500021E0892B09F420E0822F0895FC01848D81
:10116000DF01A80FB11DA35ABF4F2C91848D90E0D1
:1011700001968F739927848FA689B7892C93A089AC
:10118000B1898C91837080648C93938D848D981336
:1011900006C00288F389E02D80818F7D80830895C9
:1011A000EF92FF920F931F93CF93DF93EC0181E0B7
:1011B000888F9B8D8C8D981305C0E889F989808173
:1011C00085FD26C0F62E0B8D10E00F5F1F4F0F73AD
:1011D0001127E02E8C8DE8120CC00FB607FCFACF59
:1011E000E889F989808185FFF5CFCE010E94AE089C
:1011F000F1CF8B8DFE01E80FF11DE35AFF4FF08216
:101200009FB7F8940B8FEA89FB89808180620AC0BE
:101210009FB7F894EE89FF896083E889F989808116
:101220008370806480839FBF81E090E0DF91CF91E5
:101230001F910F91FF90EF900895CF93DF93EC01F2
:10124000888D8823C9F0EA89FB89808185FD05C0E6
:10125000A889B9898C9186FD0FC00FB607FCF5CF20
:10126000808185FFF2CFA889B9898C9185FFEDCF68
:10127000CE010E94AE08E7CFDF91CF91089580E0C4
:1012800090E0892B21F00E94A408811125C080E004
:1012900090E0892B41F080E090E0892B21F00E94C2
:1012A000000081111CC080E090E0892B41F080E0BB
:1012B00090E0892B21F00E940000811113C080E092
:1012C00090E0892BA1F080E090E0892B81F00E94D2
:1012D000000081110AC008950E940000D8CF0E942A
:1012E0000000E1CF0E940000EACF0C9400000895B6
:1012F0000E941A370F931F93CF93DF93EC018881DD
:101300009981009729F02A813B812617370788F4B5
:101310008B016F5F7F4F0E943536009761F0998394
:1013200088831B830A832C813D81232B11F4FC01CC
:10133000108281E001C080E0DF91CF911F910F9179
:101340000895CF93DF93EC0188819981009711F084
:101350000E94AC35198218821D821C821B821A825F
:10136000DF91CF910895EF92FF920F931F93CF9348
:10137000DF93EC01198218821B821A821D821C8263
:101380006115710509F18B01CB010E9479327C0155
:10139000BC01CE010E947A09811109C0CE01DF9102
:1013A000CF911F910F91FF90EF900C94A109FD82B6
:1013B000EC82B80188819981DF91CF911F910F91C3
:1013C000FF90EF900C947232DF91CF911F910F91AB
:1013D000FF90EF9008951F920F920FB60F92112475
:1013E0000BB60F922F933F934F935F936F937F931F
:1013F0008F939F93AF93BF93EF93FF938091E210EE
:101400009091E310A091E410B091E510892B8A2B04
:101410008B2B59F19091DF10E091E010F091E110E9
:101420008081892780838091E2109091E310A091C0
:10143000E410B091E510181619061A061B060CF0F8
:1014400056C08091E2109091E310A091E410B09109
:10145000E5100197A109B1098093E2109093E31080
:10146000A093E410B093E51042C080915C02E4E2E6
:10147000F4E0E4919FEF90935C02E230C9F050F405
:10148000EE2399F0E13081F590916F009D7F90936C
:101490006F002AC0E43019F1E0F0E53029F59091B1
:1014A00073009D7F909373001FC010926E001CC04C
:1014B000909170009D7F9093700091E09093B000A8
:1014C0009091B100987F94609093B1001092B30016
:1014D0000BC0909171009D7F9093710005C0909119
:1014E00072009D7F9093720060E00E94E31FFF9165
:1014F000EF91BF91AF919F918F917F916F915F918C
:101500004F913F912F910F900BBE0F900FBE0F90F8
:101510001F9018956115710579F0FB01019000206D
:10152000E9F73197AF01461B570BDC01ED91FC91B8
:101530000280F381E02D199480E090E008950C94EE
:101540008A0A1F920F920FB60F9211240BB60F92B8
:101550002F933F934F935F936F937F938F939F93BB
:10156000AF93BF93EF93FF938BE89CE00E94AE088C
:10157000FF91EF91BF91AF919F918F917F916F916B
:101580005F914F913F912F910F900BBE0F900FBE27
:101590000F901F9018951F920F920FB60F92112463
:1015A0000BB60F922F938F939F93EF93FF93E0913E
:1015B0009B0CF0919C0C8081E091A10CF091A20C0D
:1015C00082FD12C090818091A40C8F5F8F73209157
:1015D000A50C821751F0E091A40CF0E0E557F34F11
:1015E000958F8093A40C01C08081FF91EF919F9112
:1015F0008F912F910F900BBE0F900FBE0F901F90E9
:101600001895AF92BF92CF92DF92EF92FF920F9315
:101610001F93CF93DF93EC016901C801820F931FE1
:101620008130924008F070C08E81882371F08881EB
:101630009981AA81BB8184179507A607B70729F46A
:101640008F819885C816D906B0F5488359836A8377
:101650007B838B85833039F089E0440F551F661FEB
:10166000771F8A95D1F79A01AB0161E1CE010E9403
:101670001113882319F083E08D8346C00E94F62061
:101680005B010E94DB128A878F3F49F40E94F6209B
:101690006A197B096D327140A0F38FE003C08E3F61
:1016A00031F08DE08D83CE010E94C9122DC01886C5
:1016B0001F8281E08E838F8198858C159D0540F473
:1016C0000E94DB128F819885019698878F83F3CFD4
:1016D0006701E00EF11EEC14FD0431F00E94DB12F4
:1016E000F60181936F01F7CF8F819885080F191F3D
:1016F00018870F838985882319F00115124048F057
:10170000CE010E94DE1205C0CE010E94C91280E007
:1017100001C081E0DF91CF911F910F91FF90EF9079
:10172000DF90CF90BF90AF9008958FB7F8948091DD
:10173000790C8FBF08950F931F93CF93DF93EB0125
:101740000E94F6208B010E94DB128F3F49F00E941D
:10175000F620601B710B6C177D07A8F380E001C0B9
:1017600081E0DF91CF911F910F910895CF92DF9289
:10177000EF92FF920F93CF93DF93EC016901411534
:1017800051056105710511F482E13EC08B858330FE
:1017900039F089E0440F551F661F771F8A95D1F7EE
:1017A0009A01AB0168E1CE010E941113882311F068
:1017B00084E02AC08EEF0E94D41276018EEFD81AF0
:1017C000F70181917F010E94D412CE14DF04C1F78A
:1017D0008FEF0E94D4128FEF0E94D4120E94DB126E
:1017E0008A878F71853031F081E18D83CE010E942F
:1017F000C9120BC00023D9F068E572E0CE010E9447
:101800009B0B811107C085E18D83CE010E94C91217
:1018100080E014C020E030E0A9016DE0CE010E941C
:101820001113811109C00E94DB12811105C0CE0184
:101830000E94C91281E002C084E1E6CFDF91CF911E
:101840000F91FF90EF90DF90CF9008950F9340910C
:101850007B0C50917C0C60917D0C70917E0C41153D
:1018600051056105710599F0082F28E23EE080914D
:101870002810909129100E94B60B882349F01092ED
:101880007B0C10927C0C10927D0C10927E0C81E0EF
:101890000F9108950F93CF9390917A0C9923F9F0BB
:1018A000C82F409158025091590260915A0270918C
:1018B0005B02082F28E23EE08091281090912910C9
:1018C0000E94B60B811102C080E00AC0CC2339F01F
:1018D0008C2F0E94260C8823B9F310927A0C81E099
:1018E000CF910F9108958F929F92AF92BF92EF92F6
:1018F000FF920F931F93CF934B015C01C42F8091F4
:10190000580290915902A0915A02B0915B02881539
:101910009905AA05BB0509F181E00E944A0C8111D5
:1019200002C080E020C088E2E82E8EE0F82E00E0C1
:1019300012E020E030E0B501A401809128109091E0
:1019400029100E94010B882361F380925802909223
:101950005902A0925A02B0925B0280917A0CC82B75
:10196000C0937A0C81E0CF911F910F91FF90EF907F
:10197000BF90AF909F908F9008954F925F926F921B
:101980007F928F929F92AF92BF92CF92DF92EF920F
:10199000FF920F931F93CF93DF93EC0142305105D9
:1019A0006105710510F480E078C089859A85AB8562
:1019B000BC850196A11DB11D84179507A607B70721
:1019C00090F3CB88DC88ED88FE888F89803129F4FC
:1019D000BB27A72F962F852F09C0DB01CA01E7E09F
:1019E000B695A79597958795EA95D1F7480159013E
:1019F0002A013B01C80ED91EEA1EFB1E8091580227
:101A000090915902A0915A02B0915B02C816D90672
:101A1000EA06FB0681F48F898031A9F4B301A201A3
:101A2000552766277727440F551FFA01E85DF14FC8
:101A30009182808219C040E0C701B6010E94730CF8
:101A40008111E9CFB0CFB301A2014F7755276627A7
:101A50007727440F551F440F551FFA01E85DF14FDA
:101A600080829182A282B38280917A0C816080937D
:101A70007A0C8A89823080F08D819E81AF81B88511
:101A8000C80ED91EEA1EFB1EC0927B0CD0927C0CA5
:101A9000E0927D0CF0927E0C81E0DF91CF911F915E
:101AA0000F91FF90EF90DF90CF90BF90AF909F90FD
:101AB0008F907F906F905F904F9008958F929F923C
:101AC000AF92BF92CF92DF92EF92FF920F931F934C
:101AD000CF93DF93FC0181859285A385B485019620
:101AE000A11DB11D84179507A607B70710F480E064
:101AF0005BC083889488A588B6888789803129F45B
:101B0000BB27A72F962F852F09C0DB01CA01C7E08D
:101B1000B695A79597958795CA95D1F7E9016A017A
:101B20007B018F01BC01CD01680D791D8A1D9B1DB4
:101B30008090580290905902A0905A02B0905B0297
:101B4000681579058A059B0591F4F801878980312C
:101B5000A1F4DD24EE24FF24C601880F991FFC01A7
:101B6000E85DF14F80819181A0E0B0E018C040E0D5
:101B70000E94730C8111E9CFBACFE894C7F8DD2435
:101B8000EE24FF24C601880F991F880F991FFC01BE
:101B9000E85DF14F80819181A281B381BF7088831C
:101BA0009983AA83BB8381E0DF91CF911F910F912D
:101BB000FF90EF90DF90CF90BF90AF909F908F906D
:101BC00008951F93CF93DF93FC0125812223C1F158
:101BD000162FEC01848187FF28C066857785808970
:101BE000918941E00E94730C882351F1EA8980E2D7
:101BF000E89FF0011124E85DF14F309709F18D81E4
:101C0000823040F48B899C89AD89BE89848F958F01
:101C1000A68FB78F8F89988DA98DBA8D938F828F5C
:101C2000B58BA48B8C818F778C83111103C08C8131
:101C30008F7E8C83812FDF91CF911F910C944A0C62
:101C400080E0DF91CF911F910895FF920F931F9332
:101C5000CF93DF93EC018D81813011F58C8181FF71
:101C60001FC082FF0DC04B895C896D897E898A8582
:101C70009B85AC85BD8584179507A607B70799F4A2
:101C80000091281010912910C8010E94FB120E9497
:101C9000DB12F82EC8010E94C9128FEFF81649F026
:101CA00080E090E02AC0CE010E9412188111E8CF96
:101CB000F7CF8C8185FF08C060E0CE010E94E10D66
:101CC0008C818F7D8C83ECCF40917B0C50917C0C70
:101CD00060917D0C70917E0C452B462B472B21F09B
:101CE00080E00E94260CDCCF80618C832A853B85B6
:101CF000317080E092E0821B930BDF91CF911F91B6
:101D00000F91FF9008952F923F924F925F926F92A2
:101D10007F928F929F92AF92BF92CF92DF92EF927B
:101D2000FF920F931F93CF93DF9300D01F921F92C8
:101D3000CDB7DEB77C015B01342E5D83DC011596E7
:101D40008C9115978130C9F414962C9021FE15C002
:101D500022FE1DC0F70143895489658976898285F1
:101D60009385A485B58584179507A607B70779F0ED
:101D7000C7010E94121881110AC081E090E0D701CA
:101D800013969C938E93129780E090E03FC1C32CF2
:101D9000DD8022947FE02722822D80958170282E7D
:101DA00081C05B968D919C915C97FC0174807A94C4
:101DB0008A019B0169E036952795179507956A95E5
:101DC000D1F770228A011170772009F477C080E082
:101DD00092E0801B910B46018C159D0508F44C0187
:101DE000D7015B962D913C915C9716968D919D91B4
:101DF0000D90BC91A02D0297A109B109F9010584AC
:101E000004C0880F991FAA1FBB1F0A94D2F74685EA
:101E1000578560897189840F951FA61FB71F9C0184
:101E2000AD01270D311D411D511D29013A018114BC
:101E300032E0930609F089C08091580290915902CE
:101E4000A0915A02B0915B02481659066A067B06B9
:101E500059F48FEF9FEFDC01809358029093590261
:101E6000A0935A02B0935B02022D9501B301A20127
:101E700080912810909129100E94B60B882309F4B4
:101E80007CCF9EEFB91AC818D908F70182859385CF
:101E9000A485B585880D991DA11DB11D82879387E5
:101EA000A487B587D7011A964D915D916D917C916C
:101EB0001D97C114D10409F074CF88C00115110514
:101EC00009F085CF16964D915D916D917C91199792
:101ED000411551056105710559F457968D919D91F4
:101EE0000D90BC91A02D0097A105B10541F521C031
:101EF0009E012F5F3F4F0E945E0D882309F445CF5E
:101F000089819A81AB81BC81F701238D348DF901E0
:101F10002789203129F048EF5FEF6FEF7FE004C0A1
:101F200048EF5FEF60E070E084179507A607B707FA
:101F300030F0C7010E940B17811149CF1ECFF70166
:101F400086839783A087B18742CF0115110531F5AC
:101F5000D7011A964D915D916D917C911D97539685
:101F60008D919D910D90BC91A02D481759076A073E
:101F70007B07A0F081E00E944A0C882309F4FDCE83
:101F8000409258025092590260925A0270925B023B
:101F900080917A0C816080937A0C08C041E0C30183
:101FA000B2010E94730C882309F4E7CED501F80131
:101FB000E85DF14F9F01280D391D2E173F0719F0DD
:101FC0008D918193FACFA80CB91C5DCFF70183895D
:101FD0009489A589B68984179507A607B70738F4A9
:101FE000438B548B658B768B848180688483F70167
:101FF000848183FD03C0832D9D8108C061E0C701FA
:102000000E94E10D882309F4B8CEF5CF0F900F9010
:102010000F900F900F90DF91CF911F910F91FF9034
:10202000EF90DF90CF90BF90AF909F908F907F9078
:102030006F905F904F903F902F900895CF93DF93D4
:102040001F92CDB7DEB7698341E050E0BE016F5FFC
:102050007F4F0E94830E0F90DF91CF910895DC0196
:102060005996ED91FC915A973097B9F083899489EC
:10207000A589B6894285538564857585841B950B32
:10208000A60BB70B811520E89207A105B10538F022
:102090008FEF9FE7A0E0B0E0089580E090E0089522
:1020A000DC0159968D919C915A97009739F0DC018B
:1020B000ED91FC910480F581E02D199480E090E091
:1020C0000895CF93DF931F92CDB7DEB76983DC010C
:1020D000ED91FC910280F381E02D41E050E0BE01E2
:1020E0006F5F7F4F19950F90DF91CF9108958F9279
:1020F0009F92AF92BF92EF92FF920F931F93CF9355
:10210000DF93EC014A015B01FC01E45BFF4F80813E
:102110009181DC01ED91FC910280F381E02D199514
:102120007E01B4E5EB0EF11C00E010E0CE5ADF4F6B
:10213000888199810817190794F4F7018191919189
:102140007F01009749F0DC01ED91FC910280F38161
:10215000E02DB501A40119950F5F1F4FE9CFDF9165
:10216000CF911F910F91FF90EF90BF90AF909F90F4
:102170008F900895805C9F4FDC01ED91FC9130972A
:1021800059F06E5071096530710530F443305105D6
:1021900019F4199581E0089580E008950895825812
:1021A0009F4F21E0FC012083089508950895FC01CC
:1021B000818D928D009719F061E00C94E10D0895E6
:1021C000CF93DF931F92CDB7DEB7FC01818D928D47
:1021D000009751F0BE016F5F7F4F0E94A9180197D1
:1021E00019F4898190E002C08FEF9FEF0F90DF918B
:1021F000CF910895EF92FF920F931F93CF93DF93A8
:102200001F92CDB7DEB7FC01818D928D009701F151
:102210007F01BE016F5F7F4F0E94A918019719F4DB
:10222000098110E002C00FEF1FEF0F3F8FEF18077B
:1022300089F0F701818D928DFC014285538564857B
:10224000758541505109610971090E94121802C037
:1022500000E010E0C8010F90DF91CF911F910F9126
:10226000FF90EF900895CF93DF93EC01898D9A8DC5
:10227000009739F481E090E09B838A8380E090E0CE
:102280000BC0FC01138212820E94830EE98DFA8D2D
:1022900022813381232B71F7DF91CF910895EF9243
:1022A000FF920F931F93CF93DF93EC018CA19DA11D
:1022B000009709F448C09A0157FD45C0DB0177FD3E
:1022C00042C048A159A16AA17BA157FD3CC077FD3E
:1022D0003AC08E01045F1F4FF80101900020E9F71A
:1022E0003197E01BF10B7A0157FD2DC077FD2BC014
:1022F0002E153F0544F14E0F5F1F421753071CF187
:10230000A617B70701F54AA168A10E94B20329A543
:1023100081E0282729A78CA19DA1222319F0AAA535
:10232000BBA502C0ACA5BDA5EC01E881F981019077
:10233000F081E02D56966C91DF91CF911F910F9116
:10234000FF90EF901994DF91CF911F910F91FF9023
:10235000EF900895CF93DF93EC018A819B810097E2
:1023600081F10E9440048AA1882369F040E065E081
:102370008A819B810E94B203BE016E5D7F4F8A817C
:102380009B810E949F0A8C81882369F041E062E072
:102390008A819B810E94B203BE016C5F7F4F8A815C
:1023A0009B810E949F0A43E06EE08A819B810E948C
:1023B000B20365E37CE08A819B810E949F0A81E0F1
:1023C00001C080E0DF91CF910895EF92FF920F93CB
:1023D0001F93CF93DF937C0120E5E20EF11CD70120
:1023E0002D913C912115310509F4C7C0EC01C901BB
:1023F0000E944004FE01E458FF4F8081882309F4C5
:1024000082C0F497808191818E01045B1F4F8230DE
:10241000910509F154F40097A1F00197B9F5D8019D
:10242000ED91FC9111A210A21DC08430910519F10B
:10243000E4F0059759F5D801ED91FC9181E190E028
:102440001FC0D801ED91FC9187E090E091A380A39B
:1024500081E090E019C0D801ED91FC9180E190E01D
:1024600091A380A313A212A211C0D801ED91FC91F7
:1024700011A210A207C0D801ED91FC9187E090E075
:1024800091A380A383E090E093A382A3FE01E65B87
:10249000FF4F808191818130910559F08230910503
:1024A00071F0892BA1F4F801808191816AE37CE0CD
:1024B0000BC0D8018D919C916CE37CE005C0F801C4
:1024C000808191816FE37CE00C960E943C37F8019B
:1024D000A081B1819D961C921E929C97FE01E25BA9
:1024E000FF4F8081918198969C938E93979781E07E
:1024F0009B968C939B97ED91FC9111970190F081A5
:10250000E02DCD0119958E010A5E1F4FF801019053
:102510000020E9F73197E01BF10BF695E7956AE0AB
:102520006E1B40E0D7018D919C910E94B203B801CF
:10253000F701808191810E949F0AD7018D919C9122
:102540000E94AB037E01B4E5EB0EF11C00E010E04D
:10255000CE5ADF4F888199810817190784F4F70153
:10256000819191917F01DC01ED91FC910190F081CD
:10257000E02D19950F5F1F4FEDCF80E001C081E086
:10258000DF91CF911F910F91FF90EF9008950C94E0
:10259000AC3561E0FC0184810E94E31F8091270E2D
:1025A00081111092270E08958EBD00000DB407FE14
:1025B000FDCF8EB508958FEF0C94D412CF93DF9397
:1025C000EC018E81882389F08F8198859C012F5F93
:1025D0003F4F38872F838230924018F40E94DB12DD
:1025E000F3CFCE010E94C9121E82DF91CF910895D0
:1025F0008CBD9DBD0895CF93DF93EC018091270E94
:10260000811109C081E08093270E8091280D90915F
:10261000290D0E94F81260E08C81DF91CF910C941B
:10262000E31F8F929F92AF92BF92FF920F931F93DF
:10263000CF93DF93EC01F62E49015A010E94DE127E
:10264000CE010E94FB126CE271E0CE010E949B0B56
:102650008F2D80640E94D41208E110E0D501C401DE
:10266000002E04C0B695A795979587950A94D2F742
:102670000E94D41208501109083F8FEF180771F714
:10268000FF2029F088E0F81204C087E803C085E93C
:1026900001C08FEF0E94D41210E00E94DB128A87E3
:1026A00087FF04C01F3F11F01F5FF7CFDF91CF916D
:1026B0001F910F91FF90BF90AF909F908F900895C2
:1026C000FC0187819085181619064CF40E949D2004
:1026D00021E0853893400CF420E0822F089508957E
:1026E000CF93DF93EC0160E08F810E946120CF8166
:1026F00061E08C2F0E94612060E08C2FDF91CF91F0
:102700000C94E31FCF92DF92EF92FF920F931F93EF
:10271000CF93DF936B01FC01E080F1808C01085EB8
:102720001F4FC0E0D0E0CE15DF0574F4F8018191B1
:1027300091918F01009731F0B60102960E943337D4
:10274000892B29F02196EFCF8FEF9FEF01C0CE01AB
:10275000DF91CF911F910F91FF90EF90DF90CF907D
:1027600008950F931F93CF93DF93FC0177FD1DC056
:102770008081918168177907C4F4DB011C96AA0F48
:10278000BB1FAE0FBF1F8D919C91009771F0EB01A5
:102790008F01DC01ED91FC910190F081E02D199504
:1027A000F801D5A7C4A781E001C080E0DF91CF91F7
:1027B0001F910F910895CF93DF93EC010E94821334
:1027C000BC01CE01DF91CF910C94B113FC0164A543
:1027D00075A50C94B113DC015496ED91FC915597BD
:1027E000309741F0CF0108962191222329F0E81774
:1027F000F907D1F781E0089580E008950F931F93C2
:10280000CF93DF93DC0194962D913C919597211500
:102810003105E9F0EC01C9010E94AB034AA168A1AE
:102820008CA19DA10E94B20309A51AA5011511054D
:1028300029F0C8010E94EB13882359F0BE01645FA0
:102840007F4F8CA19DA10E949F0A81E00FC080E074
:102850000DC08CA19DA1DC01ED91FC910190F08156
:10286000E02DD80156966C911995E8CFDF91CF9164
:102870001F910F9108950895089585ED8093BC00F0
:102880008091BC0084FDFCCF1092BA100895089589
:10289000E091731080917210E81730F4F0E0EC587A
:1028A000FF4E808190E008958FEF9FEF0895909103
:1028B000731080917210981750F4E92FF0E0EC58E3
:1028C000FF4E208130E09F5F9093731002C02FEF86
:1028D0003FEFC90108958091721090E0209173102C
:1028E000821B910908951092731010927210109229
:1028F000BC101092DE101092BA1081E08093B910D3
:102900001092941061E084E10E94E31F61E085E190
:102910000E94E31FE9EBF0E080818E7F808380815D
:102920008D7F808388E48093B80085E48093BC0029
:102930008BE394E190937110809370108CE394E199
:1029400090936F1080936E100895EF92FF920F9303
:102950001F93CF93DF938C017A01677088E0689FA3
:10296000B00111246064C8010E949903E701A8E046
:10297000EA0EF11C6991D801ED91FC910190F08172
:10298000E02DC8011995CE15DF05A1F7DF91CF9194
:102990001F910F91FF90EF900895FC0184A195A1E4
:1029A000009761F004A4F5A5E02D309739F0448933
:1029B000558966890E94A51481E0089580E00895F4
:1029C000CF93DF93FC0184A195A10097E1F0A2A52C
:1029D000B3A51097C1F024A535A5232BA1F0EF01D5
:1029E00054964D915C91559756966C910E94A51402
:1029F000ECA5FDA54489558966898CA19DA10E94FD
:102A0000A51481E001C080E0DF91CF910895CF92BD
:102A1000DF92EF92FF920F931F93CF93DF93CDB787
:102A2000DEB728970FB6F894DEBF0FBECDBFDC012E
:102A300014964D915C9115974115510509F489C083
:102A40006D917C91FB012081222309F482C08C01CD
:102A5000493C510530F48BE89CE00E943D0881E040
:102A600079C01A8219821C821B821E821D8260E03C
:102A700070E0CE0101960E947A09811107C0CE0153
:102A800001960E94A109E12CF12C24C01E821D8216
:102A900069E776E089819A810E943C37F4CFB8ECEF
:102AA000EB16F10449F54D815E8169817A818BE8ED
:102AB0009CE00E943D0860E070E0CE0101960E941B
:102AC0007A09811110C0CE0101960E94A109EFEF91
:102AD000EE1AFE0AD80114968D919C911597E8166E
:102AE000F906E8F232C01E821D8269E776E089812C
:102AF0009A810E943C37EBCFD801ED91FC91309741
:102B000029F410926D10EDE6F0E102C0EE0DFF1D0C
:102B100080818F831886CD80DE80BFEFCB1ADB0AE1
:102B2000B601CE0101960E947A09882381F229819B
:102B30003A818D819E81BE01695F7F4F820F931F15
:102B40000E943C37DE82CD82C2CF89819A810E9469
:102B5000AC3580E028960FB6F894DEBF0FBECDBF2F
:102B6000DF91CF911F910F91FF90EF90DF90CF9069
:102B700008958F929F92AF92BF92CF92DF92EF9281
:102B8000FF92CF93DF93C82F8AE29DE090932910A4
:102B900080932810CC2369F1C53010F080E00CC17F
:102BA00040E060E070E0CB010E94730C8823B1F339
:102BB00020E1C29FC0011124885E914FFC01E254C4
:102BC000FE4F20812F7751F73C96408151816281E1
:102BD0007381443651056105710500F33497C08057
:102BE000D180E280F380C114D104E104F10421F426
:102BF000D5CFC12CD12C760140E0C701B6010E948F
:102C0000730C882359F28091330E9091340E811504
:102C1000924021F6A091380EAA2309F4BFCF60910B
:102C2000360E7091370E6115710509F4B7CF2091FA
:102C3000350E222309F4B2CFA093480D20933A0D0C
:102C400080E030E041E050E0C82FFA01082E02C0D9
:102C5000EE0FFF1F0A94E2F72E173F0739F08F5F40
:102C6000C83091F789E08093430D98CF8093430D4E
:102C700020913E0E30913F0E2115310519F040E0B4
:102C800050E008C020914C0E30914D0E40914E0EF8
:102C900050914F0E20933B0D30933C0D40933D0DD2
:102CA00050933E0D46015701860E971EA11CB11C84
:102CB0008092490D90924A0DA0924B0DB0924C0D0E
:102CC000E091390EF0913A0EF0934F0DE0934E0DD6
:102CD000B0E00E94E333860E971EA81EB91E8092B4
:102CE000500D9092510DA092520DB092530D85E06F
:102CF000EE0FFF1F8A95E1F7E150FE4FEF2FFF2700
:102D0000E6958E0E9F1EA11CB11C8092440D9092E0
:102D1000450DA092460DB092470D20913B0E30918B
:102D20003C0E2115310521F0A90160E070E008C0DA
:102D30004091480E5091490E60914A0E70914B0E91
:102D4000D701C60188199909AA09BB09840F951FE3
:102D5000A61FB71F04C0B695A79597958795CA95E6
:102D6000D2F780933F0D9093400DA093410DB09307
:102D7000420D853F2FE09207A105B10510F48CE0CC
:102D800018C0853F9F4FA105B10510F480E111C027
:102D90008091540E9091550EA091560EB091570E01
:102DA0008093500D9093510DA093520DB093530DFD
:102DB00080E280934D0D81E0DF91CF91FF90EF9005
:102DC000DF90CF90BF90AF909F908F900895E0914B
:102DD000CC0DF091CD0DE730F105A8F48827EE5821
:102DE000FF4F8F4F0C94663427E43CE012C02FE471
:102DF0003CE00FC023E53CE00CC027E53CE009C007
:102E00002BE53CE006C0089523E43CE002C02BE43F
:102E10003CE0C90108953F924F925F926F927F927A
:102E20008F929F92AF92BF92CF92DF92EF92FF92DA
:102E30000F931F93CF93DF93CDB7DEB72C970FB6C9
:102E4000F894DEBF0FBECDBF5C01DC015B968D90B8
:102E50009C905C971696CD90DD90ED90FC90199724
:102E6000C114D104E104F10439F0BFEFCB1ADB0A3D
:102E7000EB0AFB0A312C07C0F401C080D180E2804C
:102E8000F38033243394F40181859285A385B4853E
:102E90009C01AD012F5F3F4F4F4F5F4F29873A870E
:102EA0004B875C87260137011D821E821F82188690
:102EB000F40181859285A385B4852D813E814F8162
:102EC0005885281739074A075B0708F063C08985CA
:102ED0009A85AB85BC858C159D05AE05BF0550F464
:102EE00082E0C82ED12CE12CF12C92E0492E512CFD
:102EF000612C712C9E012F5F3F4FB701A601C401C9
:102F00000E945E0D882309F445C089819A81AB81B6
:102F1000BC81892B8A2B8B2B41F0260137019FEF37
:102F2000491A590A690A790A05C0C414D504E60485
:102F3000F70491F02D813E814F8158852F5F3F4FDF
:102F40004F4F5F4F2D833E834F8358873FEFC31A08
:102F5000D30AE30AF30AACCF0FEF1FEF2FEF3FE0E6
:102F6000B301A201C4010E94BD0C882399F0D501D0
:102F700016964D915D916D917C9119974115510572
:102F80006105710549F093018201C4010E94BD0CE5
:102F9000811102C080E02EC0D50116964D925D923F
:102FA0006D927C921997332051F0D301C2010196A2
:102FB000A11DB11DF40180839183A283B383F50128
:102FC0008789908DA18DB28D892B8A2B8B2B69F4EB
:102FD000D50157964D925D926D927C925A971496B8
:102FE0008C911497806814968C93F501848180628B
:102FF000848381E02C960FB6F894DEBF0FBECDBF60
:10300000DF91CF911F910F91FF90EF90DF90CF90C4
:10301000BF90AF909F908F907F906F905F904F90F8
:103020003F9008958F929F92AF92BF92CF92DF927E
:10303000EF92FF920F931F93CF93DF93EC018D815B
:10304000811102C080E078C00B891C892D893E89DE
:103050000417150726073707A8F36A017B0182309A
:1030600029F4CA86DB86EC86FD860DC0C114D10426
:10307000E104F10451F41E821F82188619861A8613
:103080001B861C861D8681E057C08A849B84AC8485
:10309000BD84EB8DFC8D258530E0275F3F4FB5016A
:1030A000A4014150510961097109022E04C07695AD
:1030B0006795579547950A94D2F7D701C6010197AE
:1030C000A109B10904C0B695A795979587952A954A
:1030D000D2F784179507A607B70720F089288A2812
:1030E0008B2871F44F89588D698D7A8D4E835F835B
:1030F000688779874C015D018E010A5F1F4F16C0FA
:10310000841B950BA60BB70BF5CF4E815F816885AD
:10311000798598018B8D9C8D0E945E0D91E0891AB6
:103120009108A108B108882309F48CCF8114910477
:10313000A104B10451F795CFDF91CF911F910F9169
:10314000FF90EF90DF90CF90BF90AF909F908F90C7
:1031500008958F929F92AF92BF92CF92DF92EF929B
:10316000FF920F931F93CF93DF93EC012D812111D9
:1031700003C08FEF9FEFB3C08C8180FFFACF8B89A4
:103180009C89AD89BE898A849B84AC84BD84881562
:103190009905AA05BB0519F480E090E0A0C07B0169
:1031A0006401F1E0DF228B8D9C8DB501A40139E033
:1031B00076956795579547953A95D1F7223071F4F2
:1031C000FC01828D938DA48DB58D8A019B01080F22
:1031D000191F2A1F3B1FC901B80143C0FC011481FC
:1031E00011501423C114D104D9F4111119C0892824
:1031F0008A288B2849F48F89988DA98DBA8D8E8362
:103200009F83A887B9870CC04E815F8168857985C7
:103210009E012A5F3F4F0E945E0D882309F4A9CFCB
:10322000EB8DFC8D8E819F81A885B9850297A109C0
:10323000B109AC01BD01058404C0440F551F661FD0
:10324000771F0A94D2F786859785A089B189840F64
:10325000951FA61FB71FBC01CD01610F711D811DF8
:10326000911D2C8126FF0DC080905802909059022C
:10327000A0905A02B0905B0286169706A806B9067F
:1032800099F440E00E94730C882309F472CFD601B0
:10329000A85DB14FF7019D012F5F3F4F2A173B07F4
:1032A00089F08D918193FACF01E010E09601AB0196
:1032B000BC0180912810909129100E94010B882355
:1032C00009F457CF8A859B85AC85BD850196A11DE4
:1032D000B11D8A879B87AC87BD8781E05ECFDF9178
:1032E000CF911F910F91FF90EF90DF90CF90BF9003
:1032F000AF909F908F9008951F920F920FB60F92EC
:1033000011240BB60F922F933F934F935F936F93BC
:103310007F938F939F93AF93BF93EF93FF9380918E
:10332000B900887F803609F49CC068F5883209F4BA
:103330005BC090F4803109F454C038F4882309F458
:10334000F6C0883009F44DC0F6C0883109F44CC08D
:10335000803209F45DC0EFC0803409F468C048F4DD
:10336000803309F455C0883309F0E5C08093B81064
:10337000D8C0803509F44FC0883509F45DC0883461
:1033800009F0D9C0D6C0883909F4C7C0A8F4883775
:1033900009F467C038F4883609F463C0803709F44B
:1033A00060C0C9C0883809F4B8C0803909F45FC06A
:1033B000803809F0C0C05BC0803B09F486C038F497
:1033C000803A09F466C0883A09F47FC0B4C0803CF2
:1033D00009F4A7C0883C09F4A4C0883B09F48AC05A
:1033E000AAC08091951010C09091B7108091B6102E
:1033F000981770F5E091B71081E08E0F8093B710A9
:10340000F0E0EA56FF4E80818093BB0085EC86C0D9
:103410008093B8108EC0E091B71081E08E0F80933A
:10342000B7108091BB00F0E0EA56FF4E8083909188
:10343000B7108091B6106EC0E091B71081E08E0F8A
:103440008093B7108091BB00F0E0EA56FF4E808376
:103450008091B91081116DC081E08093941084EA4D
:1034600061C083E08093BA1010926C10CFCF80912E
:103470006C10803208F051C0E0916C1081E08E0F2A
:1034800080936C108091BB00F0E0E45BFF4E808382
:10349000BDCF85EC8093BC001092BA1080916C1067
:1034A000803230F4E0916C10F0E0E45BFF4E10826B
:1034B00060916C1070E0E0916E10F0916F108CE4F0
:1034C00090E1199510926C1036C084E08093BA1088
:1034D00010924B1010924A10E0917010F091711000
:1034E000199580914A10811105C081E080934A109E
:1034F00010922A10E0914B1081E08E0F80934B10B8
:10350000F0E0E65DFF4E80818093BB0090914B1010
:1035100080914A10981708F479CF85E88093BC0011
:103520000AC085EC8093BC001092BA1004C01092BF
:10353000B8100E943D14FF91EF91BF91AF919F9100
:103540008F917F916F915F914F913F912F910F904C
:103550000BBE0F900FBE0F901F90189540914A1010
:10356000262F30E0240F311D21323105DCF420916B
:10357000BA102430C9F4FC0180E090E0861758F4BA
:1035800030914A102191DC01A65DBF4EA30FB11D01
:103590002C930196F3CF80914A10680F60934A10E4
:1035A00080E0089581E0089582E00895682F8BE817
:1035B0009CE00C94D0084F925F926F927F928F9212
:1035C0009F92AF92BF92CF92DF92EF92FF920F93B2
:1035D0001F93CF93DF9300D01F921F92CDB7DEB71A
:1035E0008C012A013B0180915C02863321F08F3FE0
:1035F00009F01FC305C0E4E2F4E024912D83D9C093
:1036000086E380935C02E4E2F4E084918D838F3F53
:1036100009F40FC3823009F468C028F5882309F43F
:103620004BC0813009F0C5C010928000109281001B
:103630008091810088608093810080918100816009
:1036400080938100E4E1F4E0E491F0E0EE0FFF1FED
:10365000EC53FC4F85919491E4EBF3E0E491E0931B
:10366000E91021E0A4C09D81943009F482C008F4DF
:1036700060C0953009F09DC0109220011092210188
:1036800080912101886080932101809121018160D6
:1036900080932101E4E1F4E0E491F0E0EE0FFF1FFC
:1036A000EC53FC4F85919491E4EBF3E0E491E093CB
:1036B000E61085E08D8307C114BC15BC84B582601B
:1036C00084BD85B5816085BDE4E1F4E0E491F0E07E
:1036D000EE0FFF1FEC53FC4F85919491E4EBF3E068
:1036E000E491E093EA101D829FC21092B000109204
:1036F000B1008091B00082608093B0008091B100F1
:1037000081608093B100E4E1F4E0E491F0E0EE0F39
:10371000FF1FEC53FC4F859194919093E11080939F
:10372000E010E4EBF3E0E491E093DF1082E08D83BE
:103730007BC210929000109291008091910088605D
:103740008093910080919100816080939100E4E1E9
:10375000F4E0E491F0E0EE0FFF1FEC53FC4F859195
:103760009491E4EBF3E0E491E093E81093E09D831F
:10377000AAC01092A0001092A1008091A1008860C0
:103780008093A1008091A10081608093A100E4E179
:10379000F4E0E491F0E0EE0FFF1FEC53FC4F859155
:1037A0009491E4EBF3E0E491E093E71024E02D83BF
:1037B0008AC09D8197FD3DC261E086E30E94612041
:1037C0008D818D7F09F083C04801A12CB12C60E070
:1037D00072E18AE790E0A50194010E9447342983B1
:1037E0003A834B835C8369017A0121E0C21AD108D4
:1037F000E108F1088FEFC816D104E104F10409F0E3
:1038000008F44EC060E472E48FE090E0A5019401FA
:103810000E94473469017A0191E0C91AD108E10890
:10382000F1082D81223009F58FEFC816D104E1048B
:10383000F10409F008F4BFC160E970ED83E090E0A5
:10384000A50194010E94473469017A0191E0C91AE7
:10385000D108E108F1082FEFC216D104E104F10408
:1038600011F008F036C183E027C08FEFC816D104ED
:10387000E104F104B9F0B0F068E478EE81E090E0A2
:10388000A50194010E94473469017A0191E0C91AA7
:10389000D108E108F1082D81222309F490C158C113
:1038A00081E001C082E09D81911106C095B5987FAD
:1038B000892B85BD7FC085E09091B100987F892BD1
:1038C0008093B10077C061E086E30E9461204801E7
:1038D000A12CB12C60E072E18AE790E0A50194018F
:1038E0000E94473469017A0181E0C81AD108E108D1
:1038F000F108C114D10491E0E906F10488F068E40C
:1039000078EE81E090E0A50194010E9447346901BE
:103910007A0181E0C81AD108E108F10883E001C00A
:1039200081E09D81913081F490918100987F892B75
:1039300080938100411451046104710409F03FC077
:103940002FEF3FEFA9016DC02D81233079F49091C5
:103950009100987F892B8093910041145104610458
:10396000710469F52FEF3FEFA9017DC09D8194306F
:1039700079F49091A100987F892B8093A100411444
:10398000510461047104D9F42FEF3FEFA9017DC008
:103990002D81253079F490912101987F892B809396
:1039A0002101411451046104710449F42FEF3FEFE8
:1039B000A9017DC0411451046104710471F0D80162
:1039C000AA0FBB1FA30192010E94E33328EE33E04C
:1039D00040E050E00E94253403C02FEF3FEFA901E3
:1039E0008D81823081F12CF4882361F08130C9F01F
:1039F00020C19D81943009F448C0ACF1953009F4A0
:103A000056C017C1C7BC2093FB103093FC104093E5
:103A1000FD105093FE1080916E00826080936E00C6
:103A200008C1D0928900C09288002093F71030938B
:103A3000F8104093F9105093FA1080916F00826053
:103A400080936F00F6C0C092B3002093E2103093D1
:103A5000E3104093E4105093E51080917000826071
:103A600080937000E6C0D0929900C0929800209395
:103A7000F3103093F4104093F5105093F6108091AA
:103A80007100826080937100D4C0D092A900C0926E
:103A9000A8002093EF103093F0104093F110509352
:103AA000F21080917200826080937200C2C0D09246
:103AB0002901C09228012093EB103093EC10409321
:103AC000ED105093EE10809173008260809373002C
:103AD000B0C068E478EE81E090E0A50194010E9416
:103AE000473469017A0181E0C81AD108E108F10878
:103AF0009FEFC916D104E104F10441F138F164E209
:103B000074EF80E090E0A50194010E9447346901C0
:103B10007A0181E0C81AD108E108F1089FEFC916BF
:103B2000D104E104F10409F008F4C5CE62E17AE7BA
:103B300080E090E0A50194010E94473469017A0178
:103B400081E0C81AD108E108F10818C084E0B4CEB9
:103B50002FEFC216D104E104F10479F170F162E1B2
:103B60007AE780E090E0A50194010E944734690162
:103B70007A0191E0C91AD108E108F1088FEFC8165F
:103B8000D104E104F104A9F0A0F089819A81AB810C
:103B9000BC812AE0B595A795979587952A95D1F789
:103BA0006C017D0121E0C21AD108E108F10887E02B
:103BB00083CE86E081CE82E07FCE84E074CE2FEF8C
:103BC000C216D104E104F10469F160F162E17AE71F
:103BD00080E090E0A50194010E94473469017A01D8
:103BE00081E0C81AD108E108F1089FEFC916D10495
:103BF000E104F104A9F0A0F089819A81AB81BC8134
:103C00003AE0B595A795979587953A95D1F76C01C8
:103C10007D0121E0C21AD108E108F10885E046CE15
:103C200084E044CE83E042CE61E086E30E946120DE
:103C3000CBCD0F900F900F900F900F90DF91CF9101
:103C40001F910F91FF90EF90DF90CF90BF90AF90BA
:103C50009F908F907F906F905F904F900895282F46
:103C60003091DE10313208F04AC08091BA108111D3
:103C7000FCCF9091DD1042E04093BA102093B91030
:103C80002FEF2093B8101092B7103093B610EDEBD1
:103C9000F0E1A6E9B0E120E0321721F041914D9327
:103CA0002F5FFACF1092951020919510990F922BBB
:103CB0009093951090919410913061F4109294101B
:103CC000909195109093BB009091BC0093FDF8CF1C
:103CD00095EC01C095EE9093BC009091BA10923093
:103CE000E1F39091B8109F3F79F08091B810803245
:103CF00041F08091B810803331F084E005C081E05C
:103D000003C082E001C083E01092BC101092DE106C
:103D10001092BB100895E4EBFDE06681862F816070
:103D200086836960CF010C9499036F927F928F9282
:103D30009F92AF92BF92CF92DF92EF92FF920F933A
:103D40001F93CF93DF93DB012C91222309F461C0F1
:103D50007A013B018C01FC01EE5AFF4F808091807B
:103D60006C01B4E5CB0ED11CC0E0D0E08C169D06F2
:103D70000CF44EC0F601A190B1906F01A114B104F2
:103D800009F444C0B301C50102960E943337892B60
:103D9000E9F56801F0E5CF0ED11CD6018D919C911B
:103DA000892BB9F1C815D905A4F5F50180A191A118
:103DB000A2A1B3A15C01E80EF91EF4E1EF16F10433
:103DC00044F59A2EEA14FB0494F0492D6A2DD6018D
:103DD0008D919C910E94B2036EEA78E0F601808199
:103DE00091810E949F0AFFEFAF1ABF0AEBCFAA96FC
:103DF000CC0FDD1FC00FD11F88819981DC01ED91AF
:103E0000FC910190F081E02D199503C02196AECF71
:103E100001C080E0DF91CF911F910F91FF90EF9053
:103E2000DF90CF90BF90AF909F908F907F906F90DA
:103E300008959091BA109111FCCF982F813208F01B
:103E400090E281E08093BA108093B9102FEF209315
:103E5000B8101092B710290F2093B61080939510C8
:103E600080919510806D8093951080919410813091
:103E700061F410929410809195108093BB00809112
:103E8000BC0083FDF8CF85EC01C085EE8093BC00BB
:103E90008091BA108130E1F38091B710891710F446
:103EA0009091B710E6E9F0E1A4E7B0E180E089176E
:103EB00021F021912D938F5FFACF10927310809390
:103EC000721008953FB7F8948091041190910511F4
:103ED000A0910611B091071126B5A89B05C02F3FF0
:103EE00019F00196A11DB11D3FBFBA2FA92F982F20
:103EF0008827820F911DA11DB11DBC01CD0142E09B
:103F0000660F771F881F991F4A95D1F70895CF92A2
:103F1000DF92EF92FF920F931F93CF93DF937C0179
:103F2000CB018A012091BB10222389F0EB016B01A8
:103F3000C40ED51ECC15DD0569F06991D701ED9150
:103F4000FC910190F081E02DC7011995F3CF642F0A
:103F50000E94AE1AC801DF91CF911F910F91FF907F
:103F6000EF90DF90CF900895CF93DF931F92CDB75E
:103F7000DEB769832091BB102223D1F02091DE109F
:103F8000203240F021E030E0FC013383228380E0E6
:103F900090E015C08091BC10E82FF0E0E354FF4E94
:103FA000998190838F5F8093BC108093DE1005C051
:103FB00061E0CE0101960E94AE1A81E090E00F9080
:103FC000DF91CF910895362F90E0FC01E15CFB4F2B
:103FD0004491FC01E258FC4F2491FC01E252FC4F59
:103FE0009491992309F46CC0442309F455C050E01E
:103FF000FA013197E231F10508F04EC08827E75801
:10400000FF4F8F4F0C946634809180008F7707C0EC
:10401000809180008F7D03C080918000877F809396
:1040200080003AC084B58F7702C084B58F7D84BD8F
:1040300033C08091B0008F7703C08091B0008F7D36
:104040008093B00029C0809190008F7707C0809145
:1040500090008F7D03C080919000877F80939000B7
:104060001BC08091A0008F7707C08091A0008F7D3A
:1040700003C08091A000877F8093A0000DC0809135
:1040800020018F7707C0809120018F7D03C0809130
:104090002001877F80932001E92FF0E0EE0FFF1FC2
:1040A000EC53FC4FA591B4919FB7F894311104C023
:1040B0008C912095282302C0EC912E2B2C939FBF2E
:1040C0000895CF93DF9390E0FC01E258FC4F2491D8
:1040D000FC01E252FC4F8491882361F190E0880F4B
:1040E000991FFC01EB5DFB4FC591D491FC01EC5392
:1040F000FC4FA591B491611109C09FB7F8948881D4
:10410000209582238883EC912E230BC0623061F4CA
:104110009FB7F8948881322F309583238883EC9160
:104120002E2B2C939FBF06C08FB7F894E8812E2BBF
:1041300028838FBFDF91CF910895863308F086538F
:1041400090917B00282F2870977F922B90937B0073
:104150008770806480937C0080917A008064809373
:104160007A0080917A0086FDFCCF809178002091C2
:10417000790090E0922B08958F929F92AF92BF9218
:10418000CF92DF92EF92FF926B017C010E94621F3F
:104190004B015C01C114D104E104F104F1F00E946F
:1041A000621FDC01CB0188199909AA09BB09883E65
:1041B0009340A105B10570F321E0C21AD108E108CE
:1041C000F10888EE880E83E0981EA11CB11CC11472
:1041D000D104E104F10419F7DDCFFF90EF90DF90F7
:1041E000CF90BF90AF909F908F9008952FB7F89485
:1041F0006091001170910111809102119091031151
:104200002FBF08951F920F920FB60F9211242F9374
:104210003F938F939F93AF93BF93809100119091A1
:104220000111A0910211B09103113091FF1023E010
:10423000230F2D3720F40196A11DB11D05C026E8DE
:10424000230F0296A11DB11D2093FF108093001132
:1042500090930111A0930211B09303118091041166
:1042600090910511A0910611B09107110196A11D21
:10427000B11D8093041190930511A0930611B09382
:104280000711BF91AF919F918F913F912F910F9007
:104290000FBE0F901F901895CF93DF93CDB7DEB769
:1042A0006E970FB6F894DEBF0FBECDBF789484B57D
:1042B000826084BD84B5816084BD85B5826085BD22
:1042C00085B5816085BD80916E00816080936E00B0
:1042D00010928100809181008260809381008091A2
:1042E0008100816080938100809180008160809353
:1042F00080008091B10084608093B1008091B00013
:1043000081608093B00080919100826080939100E1
:1043100080919100816080939100809190008160F4
:10432000809390008091A10082608093A100809191
:10433000A10081608093A1008091A00081608093A2
:10434000A000809121018260809321018091210150
:104350008160809321018091200181608093200100
:1043600080917A00846080937A0080917A008260E4
:1043700080937A0080917A00816080937A008091A6
:104380007A00806880937A001092C100E0919B0CC3
:10439000F0919C0C82E08083E0919B0CF0919C0C4E
:1043A0001082E091970CF091980C1082E091990C9A
:1043B000F0919A0C80E180831092A30CE0919F0C05
:1043C000F091A00C86E08083E0919D0CF0919E0C12
:1043D000808180618083E0919D0CF0919E0C8081B2
:1043E00088608083E0919D0CF0919E0C80818068B4
:1043F0008083E0919D0CF0919E0C80818F7D808365
:104400006091530289E593E00E943908F090180208
:104410000F2D109119020C33110508F0D4C18AE751
:1044200093E00E945B0582EB93E00E945B05B8017C
:1044300080E090E00E94C4320E9450040E94480430
:104440008091590D882341F061E084E59DE00E9450
:10445000E10D81111092590D1092350D1092330D0E
:104460001092300D10922F0DF0922E0D0E94F6201A
:104470008B0161E080912E0D0E94612061E08091AE
:104480002E0D0E94E31FFFB6F8948091600C8111FD
:1044900027C0E3E1F4E08491E3EBF3E09491E82FAB
:1044A000F0E0EE0FFF1FEB5DFB4FA591B491EC9197
:1044B000E92321F461E085E30E94E31F61E085E3E5
:1044C0000E9461208CB580618CBD8CB580648CBDF0
:1044D00061E084E30E94612061E083E30E94612047
:1044E0008091600C8F5F8093600CFFBE82E58093AB
:1044F000280D1092290D8091280D9091290D0E9470
:10450000F8122AE0F22E8FEF0E94D412FA94F110E2
:10451000FACF8AE29DE00E94FB1220E030E0A90180
:1045200060E08AE29DE00E941113F82E8093340D22
:1045300021E0821749F00E94F620601B710B613D5B
:10454000774058F381E056C02AEA31E040E050E07D
:1045500068E08AE29DE00E94111382FF03C0F0929E
:10456000350D10C094E0F92E0E94DB128093340DBB
:10457000FA94F110F9CF8A3A11F082E03BC082E060
:104580008093350D8091350D823021F0812C912C56
:10459000540105C0812C912CA12C80E4B82E20E080
:1045A00030E0A90167E38AE29DE00E941113A501B2
:1045B000940169E28AE29DE00E9411138093340D18
:1045C000882349F00E94F620601B710B613D774003
:1045D00030F388E00FC08091350D823009F520E07E
:1045E00030E0A9016AE38AE29DE00E94111388236A
:1045F00049F086E080932F0D8AE29DE00E94C91267
:104600000C947A2C0E94DB12807C803C19F483E0AD
:104610008093350D0E94DB120E94DB120E94DB1298
:104620008AE29DE00E94C91280E58093280D1092D5
:10463000290D81E00E94B915882331F08091590D30
:10464000882351F00C947A2C80E00E94B9158823BD
:1046500011F40C947A2CF2CF80914D0D803109F534
:1046600082E08093590D10926B0D10926C0D109298
:104670006D0D10926E0D80914E0D90914F0DA0E03A
:10468000B0E015E0880F991FAA1FBB1F1A95D1F73C
:104690008093670D9093680DA093690DB0936A0D98
:1046A0005FC0803211F00C947A2C83E08093590D16
:1046B0008091500D9091510DA091520DB091530DDC
:1046C00080936B0D90936C0DA0936D0DB0936E0D58
:1046D000898B9A8BAB8BBC8B812C912C5401412CF8
:1046E000F2E05F2E612C712C49895A896B897C8993
:1046F0009E012F5E3F4F86E39DE00E945E0D882362
:1047000011F40C947A2CD301C2010090430D04C023
:10471000880F991FAA1FBB1F0A94D2F7880E991EF3
:10472000AA1EBB1E49895A896B897C8980914D0DCF
:10473000803129F088EF9FEFAFEFBFE004C088EF32
:104740009FEFA0E0B0E0481759076A077B0760F2C7
:104750008092670D9092680DA092690DB0926A0DDB
:1047600086E39DE09093700D80936F0D81E08093C0
:10477000580D10925A0D10925B0D10925C0D109214
:104780005D0D10925E0D10925F0D1092600D1092F3
:10479000610D1092620D1092630D1092640D1092D3
:1047A000650D1092660D6EE372E0CE0101960E94D7
:1047B000B309CE0101960E94071589819A810E9452
:1047C000AC35DD24D394D09257028AED93E00E9459
:1047D0005B056D2D70E080E090E00E94C4320E9485
:1047E00050040E944804F09053020091200210915E
:1047F000210217FD17C00E9448046F2D8AEF93E035
:104800000E943908FF2019F0C8010E9453050E9438
:10481000480461E0802F0E94612061E0802F0E94A7
:10482000E31F10C00E9448046F2D8CE194E00E94A9
:104830003908FF2019F0C8010E9453058AE594E069
:104840000E945B05F090530200911C0210911D0222
:1048500017FD17C00E9448046F2D87E694E00E9460
:104860003908FF2019F0C8010E9453050E9448042E
:1048700061E0802F0E94612060E0802F0E94E31F92
:1048800010C00E9448046F2D8DE894E00E94390802
:10489000FF2019F0C8010E9453058AE594E00E94A8
:1048A0005B05F090530200911E0210911F0217FD4C
:1048B00017C00E9448046F2D8FEC94E00E943908C5
:1048C000FF2019F0C8010E9453050E94480461E0CE
:1048D000802F0E94612060E0802F0E94E31F10C0A3
:1048E0000E9448046F2D83EF94E00E943908FF2056
:1048F00019F0C8010E9453058AE594E00E945B0507
:104900000E9473141092B90D8091BE0D823018F080
:1049100098E09093B90D8093BC0D62E370E080E065
:1049200090E00E94BC206091BF0D84EB9DE00E944E
:10493000550368EE73E080E090E00E94BC2060E3E5
:1049400084EB9DE00E9469030BE416E4C801019723
:10495000F1F760E384EB9DE00E946903C8010197D1
:10496000F1F760E384EB9DE00E94690383E592E048
:104970000197F1F760E284EB9DE00E94690360918A
:10498000B90D606284EB9DE00E94990384E08093FE
:10499000BA0D6CE084EB9DE00E94990384EB9DE0EE
:1049A0000E94400482E08093BB0D66E084EB9DE0B2
:1049B0000E94990362E084EB9DE00E9499038BE3DF
:1049C0009FE10197F1F788E08093BF0D60E084EBF1
:1049D0009DE00E94550383E395E00E945B051091E2
:1049E00053020E947314612F8AE595E00E943908F2
:1049F00081E08093BB1088E68093DD101092BC109C
:104A00001092DE1060E08FE79CE00E94B41F81E00E
:104A10000E942F1E81E090E00E94191F8FE79CE00A
:104A20000E945714612F87FD03C087E895E002C0FC
:104A30008FEA95E00E943908809124029091250226
:104A40009093B10D8093B00D809126029091270232
:104A50009093A80D8093A70D809128029091290230
:104A600090939F0D80939E0D80912A0290912B022E
:104A70009093960D8093950D80912C0290912D022C
:104A800090938D0D80938C0D809130029091310226
:104A90009093840D8093830D809132029091330224
:104AA00090937B0D80937A0D89EA9DE00E947013AC
:104AB00080EA9DE00E94701387E99DE00E947013D8
:104AC0008EE89DE00E94701385E89DE00E947013BF
:104AD0008CE79DE00E94701383E79DE00E947013B5
:104AE00060E080912E020E9461208091080E9091DA
:104AF000090EFC01E85BFF4FAA24A394B12CB182FC
:104B0000A0823296B182A082369654EBC52E5DE02B
:104B1000D52ED182C08234970190F081E02DD5A2AC
:104B2000C4A2FC01E458FF4F1082A091D20DB091B5
:104B3000D30D80E192E055969C938E9354975796AF
:104B40001C921E925697E091000EF091010ED5A294
:104B5000C4A2B5A7A4A7FF24F394F3A602E010E033
:104B600011A300A313A302A382E198E090A787A357
:104B7000CF010E94CD14E091FE0DF091FF0D87E072
:104B800090E091A380A313A302A3D5A2C4A2A091F5
:104B9000D00DB091D10D88E092E055969C938E9304
:104BA00054975796BC92AE925697B5A7A4A7F3A672
:104BB00082E098E090A787A3CF010E94CD14A09136
:104BC000CE0DB091CF0D80E092E055969C938E93E0
:104BD000549757961C930E935697E091FC0DF091C5
:104BE000FD0DD5A2C4A28DE090E091A380A313A3F4
:104BF00002A3B5A7A4A7F3A6CF010E94CD144091AC
:104C0000080E5091090EFA01EE5AFF4F20813181B2
:104C1000C901880F991F840F951FDC01AC5ABF4F43
:104C20006091000E7091010E11967C936E93129616
:104C30006091FE0D7091FF0D11967C936E9312960C
:104C40006091FC0D7091FD0D6D937C932D5F3F4F36
:104C50003183208360910A0E70910B0E7E8F6D8FD1
:104C6000DB018D919C91DC011C96AA0FBB1FA60F46
:104C7000B71F4D935C939C012F5F3F4FFB01318326
:104C8000208397FD02C0978B868B2091060E309172
:104C9000070ED901A05BBF4F04EB1DE011961C93DA
:104CA0000E9314970D90BC91A02D95961C930E9386
:104CB0009497D901A85BBF4F81E090E011969C9337
:104CC0008E93129611969C938E93D296FF24F39412
:104CD000FC926091FA0D7091FB0DE3E08E2E912C09
:104CE000DB0191969C928E92909793969C938E93D3
:104CF000929795961C930E9394979A961C921E9257
:104D00009997D901AE5ABF4FCD90DC901197A6016B
:104D1000465D5F4F440F551F420F531FFA017183C9
:104D20006083FFEFCF1ADF0A1196DC92CE9260917A
:104D3000F40D7091F50D4EE0442E512CFB0151A263
:104D400040A293A382A315A304A340E253E050A77B
:104D500047A3CD90DC901197A601465D5F4F440FAD
:104D6000551F420F531FFA0171836083FFEFCF1A63
:104D7000DF0A1196DC92CE92A901425B5F4FFCE400
:104D8000AF2EF3E0BF2EFA01B182A0826091F80D40
:104D90007091F90DFB0115A304A391A280A242E03A
:104DA000642E712C73A262A212A611A6CD90DC9083
:104DB0001197A601465D5F4F440F551F420F531FC9
:104DC000FA0171836083FFEFCF1ADF0A1196DC923C
:104DD000CE926091F20D7091F30DFB0115A304A327
:104DE00051A240A273A262A244EF52E050A747A38F
:104DF000CD90DC901197A601465D5F4F440F551F83
:104E0000420F531FFA0171836083FFEFCF1ADF0A4D
:104E10001196DC92CE926091F60D7091F70DFB0128
:104E200015A304A391A280A293A282A212A611A606
:104E3000CD90DC901197A601465D5F4F440F551F42
:104E4000420F531FFA0171836083FFEFCF1ADF0A0D
:104E50001196DC92CE926091F00D7091F10DFB01F4
:104E600015A304A351A240A293A282A247E454E155
:104E700050A747A3CD90DC901197A601465D5F4FE8
:104E8000440F551F420F531FFA0171836083FFEFD8
:104E9000CF1ADF0ACD92DC92AD8DBE8D4D915C9123
:104EA000DA011C96AA0FBB1FED8DFE8DAE0FBF1F42
:104EB0002D933C934F5F5F4F518340832091040EAD
:104EC0003091050ED901A05BBF4F11961C930E9334
:104ED00014970D90BC91A02D95961C930E939497CA
:104EE000D901A85BBF4F11969C938E931296119691
:104EF0009C938E93D296FC929E97AD92BC926091B9
:104F0000EE0D7091EF0DDB0195961C930E93949727
:104F100091969C938E93909793969C938E93929751
:104F20009A961C921E929997D901AE5ABF4FCD9076
:104F3000DC901197A601465D5F4F440F551F420F4D
:104F4000531FFA0171836083FFEFCF1ADF0A1196B6
:104F5000DC92CE926091EC0D7091ED0DFB0115A3EA
:104F600004A34AE050E051A340A393A382A312A656
:104F700011A6CD90DC901197A601465D5F4F440FBE
:104F8000551F420F531FFA0171836083FFEFCF1A41
:104F9000DF0A1196DC92CE926091EA0D7091EB0DD2
:104FA000FB0115A304A340E150E051A340A313A2C9
:104FB00012A212A611A6CD90DC901197A601465D13
:104FC0005F4F440F551F420F531FFA0171836083D7
:104FD000FFEFCF1ADF0A1196DC92CE926091E20DBC
:104FE0007091E30DFB0115A304A391A380A373A209
:104FF00062A212A611A6CD90DC901197A601465D83
:105000005F4F440F551F420F531FFA017183608396
:10501000FFEFCF1ADF0A1196DC92CE924091E00D9D
:105020005091E10DFA0115A304A36AE070E071A3A9
:1050300060A373A262A215A614A665EA75E070A724
:1050400067A3F3A6CD90DC901197B601665D7F4F04
:10505000660F771F620F731FFB0151834083FFEFC1
:10506000CF1ADF0ACD92DC92AD8DBE8D4D915C9151
:10507000DA011C96AA0FBB1FED8DFE8DAE0FBF1F70
:105080002D933C934F5F5F4F518340832091020EDD
:105090003091030EF901E05BFF4F118300833497D9
:1050A0000190F081E02D15A304A3F901E85BFF4F07
:1050B000918380833296918380833496B182A082DB
:1050C000BE96F082C090DE0DD090DF0DD601959691
:1050D0001C930E9394974CE050E091965C934E9302
:1050E000909793969C938E9392979D961C921E9266
:1050F0009C9742E956E098965C934E939797BA979F
:1051000060817181AB01465D5F4F440F551F420FB7
:10511000531FDA01CD92DC926F5F7F4F7183608302
:105120004091DA0D5091DB0DDA0195961C930E93A8
:10513000949791965C924E92909793969C938E93AF
:1051400092979A961C921E92999760817181DB01C9
:105150009A96AA0FBB1FA20FB31F4D935C936F5F6C
:105160007F4F718360836091DC0D7091DD0DDB01F9
:1051700095961C930E9394974FE050E091965C9314
:105180004E93909793969C938E9392979D961C9294
:105190001E929C9785EF95E098969C938E93979797
:1051A00040815181CA018A96880F991F820F931FEF
:1051B000DC016D937C934F5F5F4F5183408360911F
:1051C000D80D7091D90DDB0195961C930E93949791
:1051D00081E497E098969C938E9397978DE090E06A
:1051E00091969C938E93909793969C928E92929781
:1051F0009D961C921E929C9740815181CA018A966D
:10520000880F991F280F391FD9016D937C934F5F29
:105210005F4F518340838091E80D9091E90DFC012F
:1052200015A304A30E94E014A091E80DB091E90D2C
:105230009996FC9299974091020E5091030EBA01F3
:105240006E5A7F4FFB0120813181C9018A96880FF8
:10525000991F840F951FFC01B183A0832F5F3F4FDF
:10526000DB012D933C938091E60D9091E70DFC01BD
:1052700015A304A30E94E014A091E60DB091E70DE0
:105280009996FC9299974091020E5091030EBA01A3
:105290006E5A7F4FFB0120813181C9018A96880FA8
:1052A000991F840F951FFC01B183A0832F5F3F4F8F
:1052B000DB012D933C938091E40D9091E50DFC0171
:1052C00015A304A30E94E0142091020E3091030E56
:1052D000D901AE5ABF4F8D919C911197FC01BA969E
:1052E000EE0FFF1FE20FF31F4091E40D5091E50D0B
:1052F0005183408301968D939C93A0910A0EB091A7
:105300000B0E8D919C911197FC013C96EE0FFF1FA7
:10531000EA0FFB1F3183208301968D939C930E949B
:1053200048048EE296E00E945B050E94480482E6F3
:1053300096E00E945B0588E796E00E945B058AE79D
:1053400096E00E945B05609128027091290287EC2B
:1053500092E00E941E0860912A0270912B028BEB52
:1053600092E00E941E0860912402709125028EEA4C
:1053700092E00E941E08609126027091270282EA44
:1053800092E00E941E0860912C0270912D0287E924
:1053900092E00E941E0860912E0270912F028CE80C
:1053A00092E00E941E08609130027091310280E804
:1053B00092E00E941E08609132027091330284E7ED
:1053C00092E00E941E0860911A0270911B0288E808
:1053D00096E00E941E0860911C0270911D0288E9EF
:1053E00096E00E941E0860911E0270911F0289EAD9
:1053F00096E00E941E08609120027091210288EBC5
:1054000096E00E941E08609122027091230284ECB3
:1054100096E00E941E0883ED96E00E945B05809155
:105420000A0E90910B0EDC0156966D917C91579768
:105430000E94B1137724739488E6882E9AEF992EF0
:105440002DE6C22EDD24D39433E1A32EB12C80911E
:10545000770C9091780C8835BBE19B0709F00EC161
:1054600089EF96E00E945B05A0910A0EB0910B0EA9
:105470009C96ED91FC919D973C96EE0FFF1FEA0FD5
:10548000FB1F8081918162E377E002960E943337AF
:10549000892B09F0EEC04DC2033008F0EFC28D5CDD
:1054A000974096958795969587952C9DB0012D9D53
:1054B000700D3C9D700D1124860F971F0596840F6B
:1054C000951F67E070E00E94FD339093CD0D8093AF
:1054D000CC0D4AE0BE01695F7F4F852D90E00E94B0
:1054E00082324AE0BE016F5F7F4F8091C20D909182
:1054F000C30D0E948232BE01695F7F4F8CE69CE043
:105500000E943C376BE377E08CE69CE00E942837F2
:10551000BE016F5F7F4F8CE69CE00E9428374AE017
:10552000BE01645F7F4F8091C60D9091C70D0E94B0
:1055300082324AE0BE01695F7F4F8091C80D909131
:10554000C90D0E9482324AE0BE016F5F7F4F809199
:10555000CA0D9091CB0D0E948232BE01645F7F4FD5
:1055600081E69CE00E943C376DE377E081E69CE0B9
:105570000E942837BE01695F7F4F81E69CE00E9450
:1055800028376DE377E081E69CE00E942837BE0172
:105590006F5F7F4F81E69CE00E9428378FE397E0A2
:1055A0000E945B058CE69CE00E945B050E9448041B
:1055B00081E69CE00E945B058091EE0D9091EF0DDD
:1055C0006CE67CE00C960E943C378091EC0D90914B
:1055D000ED0D61E67CE00C960E943C370E94E716D8
:1055E0002091EA0D3091EB0DBC01C9010C960E948F
:1055F0003C378FE497E00E945B050E94E7160E940B
:105600005B0545E050E066E677E08091040E9091FE
:10561000050E0E94951E48E050E060E777E080911B
:10562000040E9091050E0E94951E43E050E06AE73B
:1056300077E08091040E9091050E0E94951EE091F6
:10564000B20DF091B30D23818091E00D9091E10DA9
:1056500021111DC263E877E00C960E943C3745E0BB
:1056600050E06EE877E08091040E9091050E0E9464
:10567000951E1092780C1092770C59C0803DE7E08F
:105680009E0709F04EC00E94480489E997E00E94F5
:105690005B0500910A0E10910B0E64EB77E0C801D8
:1056A0000E9482138F3FFFEF9F0751F00C96880FE7
:1056B000991FF801E80FF91F208131813C8F2B8F52
:1056C0008B8D9C8D02960E945B050E9448048CEB9A
:1056D00097E00E945B0500910A0E10910B0E62E3A9
:1056E00077E0C8010E9482138F3F3FEF930751F08C
:1056F0000C96880F991FF801E80FF91F408151811E
:105700005A8F498F898D9A8D02960E945B050E945F
:10571000480485ED97E00E945B058091770C90919D
:10572000780C8C599F4F9093780C8093770C8091D4
:10573000D40D9091D50D843191052CF0B092D50DFA
:10574000A092D40D06C097FF04C01092D50D109200
:10575000D40D8091D60D9091D70D97FF05C0109272
:10576000D70D1092D60D08C0049734F083E090E076
:105770009093D70D8093D60D0E948B1E4091D60D2D
:105780006091D40D84EB9DE00E94B203E0910A0E7B
:10579000F0910B0E84A595A597FD0CC02081318159
:1057A000281739073CF00C96880F991FE80FF91F4E
:1057B0002080318087E99DE00E946013882361F09A
:1057C0008BED97E00E945B050E9448048091D60D06
:1057D0009091D70D019711C08EE89DE00E94601353
:1057E000882381F080EF97E00E945B050E944804C7
:1057F0008091D60D9091D70D01969093D70D8093FF
:10580000D60D6FC080EA9DE00E946013882361F08E
:1058100087E098E00E945B050E9448048091D40DC7
:105820009091D50D019711C089EA9DE00E94601307
:10583000882381F08EE198E00E945B050E94480475
:105840008091D40D9091D50D01969093D50D8093B4
:10585000D40D47C085E89DE00E9460138823A9F11C
:1058600086E398E00E945B050E94480421143104FD
:1058700039F18FE498E00E945B0584E698E00E948D
:105880005B05C10102960E945B050E944804D1019C
:10589000ED91FC910280F381E02D2091D40D3091A7
:1058A000D50D3E8B2D8B4091D60D5091D70D588F35
:1058B0004F8B4D895E896F89788DC101199511C013
:1058C00080E798E00E945B050CC08CE79DE00E9499
:1058D0006013882331F080EB98E00E945B050E9402
:1058E000480464E670E080E090E00E94BC200E94E2
:1058F0003F09ADCD62EF72E0CE0101960E94B3097F
:10590000CE0101960E94071589819A810E94AC35CB
:1059100062E772E0CE0101960E94B309CE010196C2
:105920000E94071589819A810E94AC35D12C0C9474
:10593000E3238BEC98E00E945B057092BB10809291
:10594000DD101092BC101092DE1060E08FE79CE03A
:105950000E94B41F81E00E942F1E87E090E00E9409
:10596000191F8FE79CE00E9457148F77982F92950C
:105970009F70F82E999DF00C11248FE79CE00E94F7
:1059800057149C01332794E0359527959A95E1F7B4
:10599000682E929E600C11248FE79CE00E945714A1
:1059A0009C01332744E0359527954A95E1F7582E19
:1059B000929E500C11248FE79CE00E9457148FE7B1
:1059C0009CE00E9457149C01332754E0359527959D
:1059D0005A95E1F7182F929E100D11248FE79CE045
:1059E0000E9457149C01332764E0359527956A95EA
:1059F000E1F7082F929E000D11248FE79CE00E9492
:105A000057149C01332774E0359527957A95E1F773
:105A1000929E800D1124282F30E0C9018053984FA9
:105A2000452D50E05093C10D4093C00D462D50E0E0
:105A30005093C30D4093C20D4F2D50E05093C50DB0
:105A40004093C40D412F50E05093C70D4093C60DB5
:105A5000602F70E07093C90D6093C80D9093CB0DCB
:105A60008093CA0DE2E7F3E061E0601708F014CD1F
:105A70007491470F511D6F5F3196F7CFB901637075
:105A80007727672B09F00BCD4F5F5F4F08CD69E893
:105A900077E0E2CD0F931F93CF93DF93EC018A0160
:105AA00019A218A21BA21AA21DA21CA21EA218A60D
:105AB0001FA28DE393E0998388831DA61CA6CE01C7
:105AC00002960E943C37B801CE010C960E943C37EA
:105AD00081E08BA7DF91CF911F910F9108950F93D4
